{
  "_format": "hh-sol-artifact-1",
  "contractName": "App",
  "sourceName": "contracts/App.sol",
  "abi": [
    {
      "inputs": [
        {
          "internalType": "address",
          "name": "selfKisserAddress",
          "type": "address"
        }
      ],
      "stateMutability": "nonpayable",
      "type": "constructor"
    },
    {
      "inputs": [],
      "name": "destroy",
      "outputs": [],
      "stateMutability": "nonpayable",
      "type": "function"
    },
    {
      "inputs": [],
      "name": "ethUsdcPrice",
      "outputs": [
        {
          "internalType": "uint256",
          "name": "",
          "type": "uint256"
        }
      ],
      "stateMutability": "view",
      "type": "function"
    },
    {
      "inputs": [
        {
          "internalType": "address",
          "name": "oracle",
          "type": "address"
        }
      ],
      "name": "getOracleValue",
      "outputs": [
        {
          "internalType": "uint256",
          "name": "",
          "type": "uint256"
        }
      ],
      "stateMutability": "view",
      "type": "function"
    },
    {
      "inputs": [
        {
          "internalType": "address",
          "name": "oracle",
          "type": "address"
        }
      ],
      "name": "kissMe",
      "outputs": [],
      "stateMutability": "nonpayable",
      "type": "function"
    },
    {
      "inputs": [],
      "name": "owner",
      "outputs": [
        {
          "internalType": "address",
          "name": "",
          "type": "address"
        }
      ],
      "stateMutability": "view",
      "type": "function"
    },
    {
      "inputs": [],
      "name": "selfKisser",
      "outputs": [
        {
          "internalType": "contract ISelfKisser",
          "name": "",
          "type": "address"
        }
      ],
      "stateMutability": "view",
      "type": "function"
    },
    {
      "inputs": [
        {
          "internalType": "uint256",
          "name": "price",
          "type": "uint256"
        }
      ],
      "name": "setEthUsdcPrice",
      "outputs": [],
      "stateMutability": "nonpayable",
      "type": "function"
    }
  ],
  "bytecode": "0x608060405234801561001057600080fd5b506040516108183803806108188339818101604052810190610032919061011c565b336000806101000a81548173ffffffffffffffffffffffffffffffffffffffff021916908373ffffffffffffffffffffffffffffffffffffffff16021790555080600260006101000a81548173ffffffffffffffffffffffffffffffffffffffff021916908373ffffffffffffffffffffffffffffffffffffffff16021790555050610149565b600080fd5b600073ffffffffffffffffffffffffffffffffffffffff82169050919050565b60006100e9826100be565b9050919050565b6100f9816100de565b811461010457600080fd5b50565b600081519050610116816100f0565b92915050565b600060208284031215610132576101316100b9565b5b600061014084828501610107565b91505092915050565b6106c0806101586000396000f3fe608060405234801561001057600080fd5b506004361061007d5760003560e01c806383197ef01161005b57806383197ef0146100d85780638da5cb5b146100e2578063a57ebdae14610100578063d61760da1461011e5761007d565b806306e46b571461008257806332f929fc1461009e578063608c0695146100bc575b600080fd5b61009c60048036038101906100979190610445565b61014e565b005b6100a66101e6565b6040516100b391906104f1565b60405180910390f35b6100d660048036038101906100d1919061054a565b61020c565b005b6100e061029c565b005b6100ea610363565b6040516100f79190610586565b60405180910390f35b610108610387565b60405161011591906105b0565b60405180910390f35b6101386004803603810190610133919061054a565b61038d565b60405161014591906105b0565b60405180910390f35b60008054906101000a900473ffffffffffffffffffffffffffffffffffffffff1673ffffffffffffffffffffffffffffffffffffffff163373ffffffffffffffffffffffffffffffffffffffff16146101dc576040517f08c379a00000000000000000000000000000000000000000000000000000000081526004016101d390610628565b60405180910390fd5b8060018190555050565b600260009054906101000a900473ffffffffffffffffffffffffffffffffffffffff1681565b600260009054906101000a900473ffffffffffffffffffffffffffffffffffffffff1673ffffffffffffffffffffffffffffffffffffffff1663c529a679826040518263ffffffff1660e01b81526004016102679190610586565b600060405180830381600087803b15801561028157600080fd5b505af1158015610295573d6000803e3d6000fd5b5050505050565b60008054906101000a900473ffffffffffffffffffffffffffffffffffffffff1673ffffffffffffffffffffffffffffffffffffffff163373ffffffffffffffffffffffffffffffffffffffff161461032a576040517f08c379a000000000000000000000000000000000000000000000000000000000815260040161032190610628565b60405180910390fd5b60008054906101000a900473ffffffffffffffffffffffffffffffffffffffff1673ffffffffffffffffffffffffffffffffffffffff16ff5b60008054906101000a900473ffffffffffffffffffffffffffffffffffffffff1681565b60015481565b6000808290508073ffffffffffffffffffffffffffffffffffffffff166357de26a46040518163ffffffff1660e01b8152600401602060405180830381865afa1580156103de573d6000803e3d6000fd5b505050506040513d601f19601f82011682018060405250810190610402919061065d565b915050919050565b600080fd5b6000819050919050565b6104228161040f565b811461042d57600080fd5b50565b60008135905061043f81610419565b92915050565b60006020828403121561045b5761045a61040a565b5b600061046984828501610430565b91505092915050565b600073ffffffffffffffffffffffffffffffffffffffff82169050919050565b6000819050919050565b60006104b76104b26104ad84610472565b610492565b610472565b9050919050565b60006104c98261049c565b9050919050565b60006104db826104be565b9050919050565b6104eb816104d0565b82525050565b600060208201905061050660008301846104e2565b92915050565b600061051782610472565b9050919050565b6105278161050c565b811461053257600080fd5b50565b6000813590506105448161051e565b92915050565b6000602082840312156105605761055f61040a565b5b600061056e84828501610535565b91505092915050565b6105808161050c565b82525050565b600060208201905061059b6000830184610577565b92915050565b6105aa8161040f565b82525050565b60006020820190506105c560008301846105a1565b92915050565b600082825260208201905092915050565b7f596f7520617265206e6f7420746865206f776e65720000000000000000000000600082015250565b60006106126015836105cb565b915061061d826105dc565b602082019050919050565b6000602082019050818103600083015261064181610605565b9050919050565b60008151905061065781610419565b92915050565b6000602082840312156106735761067261040a565b5b600061068184828501610648565b9150509291505056fea26469706673582212200b79beeb3178d97c46dc5a948b517977fd2cd2a1e12aeeb5d64f462c010a766564736f6c63430008130033",
  "linkReferences": {},
  "deployedLinkReferences": {}
}