{
  "_format": "hh-sol-artifact-1",
  "contractName": "App",
  "sourceName": "contracts/App.sol",
  "abi": [
    {
      "inputs": [
        {
          "internalType": "address",
          "name": "selfKisserAddress",
          "type": "address"
        },
        {
          "internalType": "address",
          "name": "ethOracleAddress",
          "type": "address"
        }
      ],
      "stateMutability": "nonpayable",
      "type": "constructor"
    },
    {
      "inputs": [
        {
          "internalType": "address[]",
          "name": "addresses",
          "type": "address[]"
        }
      ],
      "name": "broadcast",
      "outputs": [],
      "stateMutability": "payable",
      "type": "function"
    },
    {
      "inputs": [],
      "name": "ethOracle",
      "outputs": [
        {
          "internalType": "contract IChronicle",
          "name": "",
          "type": "address"
        }
      ],
      "stateMutability": "view",
      "type": "function"
    },
    {
      "inputs": [
        {
          "internalType": "address",
          "name": "oracle",
          "type": "address"
        }
      ],
      "name": "getOracleValue",
      "outputs": [
        {
          "internalType": "uint256",
          "name": "",
          "type": "uint256"
        }
      ],
      "stateMutability": "view",
      "type": "function"
    },
    {
      "inputs": [
        {
          "internalType": "address",
          "name": "oracle",
          "type": "address"
        }
      ],
      "name": "kissMe",
      "outputs": [],
      "stateMutability": "nonpayable",
      "type": "function"
    },
    {
      "inputs": [],
      "name": "owner",
      "outputs": [
        {
          "internalType": "address",
          "name": "",
          "type": "address"
        }
      ],
      "stateMutability": "view",
      "type": "function"
    },
    {
      "inputs": [],
      "name": "selfKisser",
      "outputs": [
        {
          "internalType": "contract ISelfKisser",
          "name": "",
          "type": "address"
        }
      ],
      "stateMutability": "view",
      "type": "function"
    },
    {
      "inputs": [],
      "name": "withdraw",
      "outputs": [],
      "stateMutability": "nonpayable",
      "type": "function"
    }
  ],
  "bytecode": "0x60806040523480156200001157600080fd5b5060405162000e2e38038062000e2e8339818101604052810190620000379190620001fc565b336000806101000a81548173ffffffffffffffffffffffffffffffffffffffff021916908373ffffffffffffffffffffffffffffffffffffffff16021790555081600160006101000a81548173ffffffffffffffffffffffffffffffffffffffff021916908373ffffffffffffffffffffffffffffffffffffffff16021790555080600260006101000a81548173ffffffffffffffffffffffffffffffffffffffff021916908373ffffffffffffffffffffffffffffffffffffffff160217905550600160009054906101000a900473ffffffffffffffffffffffffffffffffffffffff1673ffffffffffffffffffffffffffffffffffffffff1663c529a679826040518263ffffffff1660e01b815260040162000156919062000254565b600060405180830381600087803b1580156200017157600080fd5b505af115801562000186573d6000803e3d6000fd5b50505050505062000271565b600080fd5b600073ffffffffffffffffffffffffffffffffffffffff82169050919050565b6000620001c48262000197565b9050919050565b620001d681620001b7565b8114620001e257600080fd5b50565b600081519050620001f681620001cb565b92915050565b6000806040838503121562000216576200021562000192565b5b60006200022685828601620001e5565b92505060206200023985828601620001e5565b9150509250929050565b6200024e81620001b7565b82525050565b60006020820190506200026b600083018462000243565b92915050565b610bad80620002816000396000f3fe6080604052600436106100705760003560e01c8063608c06951161004e578063608c0695146100d35780638da5cb5b146100fc5780639c8762e114610127578063d61760da1461015257610070565b806332f929fc146100755780633ccfd60b146100a05780634e69018d146100b7575b600080fd5b34801561008157600080fd5b5061008a61018f565b6040516100979190610617565b60405180910390f35b3480156100ac57600080fd5b506100b56101b5565b005b6100d160048036038101906100cc91906107dd565b6102ac565b005b3480156100df57600080fd5b506100fa60048036038101906100f59190610826565b610441565b005b34801561010857600080fd5b506101116104d1565b60405161011e9190610862565b60405180910390f35b34801561013357600080fd5b5061013c6104f5565b604051610149919061089e565b60405180910390f35b34801561015e57600080fd5b5061017960048036038101906101749190610826565b61051b565b60405161018691906108d2565b60405180910390f35b600160009054906101000a900473ffffffffffffffffffffffffffffffffffffffff1681565b60008054906101000a900473ffffffffffffffffffffffffffffffffffffffff1673ffffffffffffffffffffffffffffffffffffffff163373ffffffffffffffffffffffffffffffffffffffff1614610243576040517f08c379a000000000000000000000000000000000000000000000000000000000815260040161023a9061094a565b60405180910390fd5b60008054906101000a900473ffffffffffffffffffffffffffffffffffffffff1673ffffffffffffffffffffffffffffffffffffffff166108fc479081150290604051600060405180830381858888f193505050501580156102a9573d6000803e3d6000fd5b50565b6000600260009054906101000a900473ffffffffffffffffffffffffffffffffffffffff1673ffffffffffffffffffffffffffffffffffffffff166357de26a46040518163ffffffff1660e01b8152600401602060405180830381865afa15801561031b573d6000803e3d6000fd5b505050506040513d601f19601f8201168201806040525081019061033f9190610996565b90506000670de0b6b3a7640000826103579190610a21565b670de0b6b3a764000061036a9190610a21565b90508251816103799190610a52565b3410156103bb576040517f08c379a00000000000000000000000000000000000000000000000000000000081526004016103b290610ae0565b60405180910390fd5b60005b835181101561043b578381815181106103da576103d9610b00565b5b602002602001015173ffffffffffffffffffffffffffffffffffffffff166108fc839081150290604051600060405180830381858888f19350505050158015610427573d6000803e3d6000fd5b50808061043390610b2f565b9150506103be565b50505050565b600160009054906101000a900473ffffffffffffffffffffffffffffffffffffffff1673ffffffffffffffffffffffffffffffffffffffff1663c529a679826040518263ffffffff1660e01b815260040161049c9190610862565b600060405180830381600087803b1580156104b657600080fd5b505af11580156104ca573d6000803e3d6000fd5b5050505050565b60008054906101000a900473ffffffffffffffffffffffffffffffffffffffff1681565b600260009054906101000a900473ffffffffffffffffffffffffffffffffffffffff1681565b6000808290508073ffffffffffffffffffffffffffffffffffffffff166357de26a46040518163ffffffff1660e01b8152600401602060405180830381865afa15801561056c573d6000803e3d6000fd5b505050506040513d601f19601f820116820180604052508101906105909190610996565b915050919050565b600073ffffffffffffffffffffffffffffffffffffffff82169050919050565b6000819050919050565b60006105dd6105d86105d384610598565b6105b8565b610598565b9050919050565b60006105ef826105c2565b9050919050565b6000610601826105e4565b9050919050565b610611816105f6565b82525050565b600060208201905061062c6000830184610608565b92915050565b6000604051905090565b600080fd5b600080fd5b600080fd5b6000601f19601f8301169050919050565b7f4e487b7100000000000000000000000000000000000000000000000000000000600052604160045260246000fd5b6106948261064b565b810181811067ffffffffffffffff821117156106b3576106b261065c565b5b80604052505050565b60006106c6610632565b90506106d2828261068b565b919050565b600067ffffffffffffffff8211156106f2576106f161065c565b5b602082029050602081019050919050565b600080fd5b600061071382610598565b9050919050565b61072381610708565b811461072e57600080fd5b50565b6000813590506107408161071a565b92915050565b6000610759610754846106d7565b6106bc565b9050808382526020820190506020840283018581111561077c5761077b610703565b5b835b818110156107a557806107918882610731565b84526020840193505060208101905061077e565b5050509392505050565b600082601f8301126107c4576107c3610646565b5b81356107d4848260208601610746565b91505092915050565b6000602082840312156107f3576107f261063c565b5b600082013567ffffffffffffffff81111561081157610810610641565b5b61081d848285016107af565b91505092915050565b60006020828403121561083c5761083b61063c565b5b600061084a84828501610731565b91505092915050565b61085c81610708565b82525050565b60006020820190506108776000830184610853565b92915050565b6000610888826105e4565b9050919050565b6108988161087d565b82525050565b60006020820190506108b3600083018461088f565b92915050565b6000819050919050565b6108cc816108b9565b82525050565b60006020820190506108e760008301846108c3565b92915050565b600082825260208201905092915050565b7f596f7520617265206e6f7420746865206f776e65720000000000000000000000600082015250565b60006109346015836108ed565b915061093f826108fe565b602082019050919050565b6000602082019050818103600083015261096381610927565b9050919050565b610973816108b9565b811461097e57600080fd5b50565b6000815190506109908161096a565b92915050565b6000602082840312156109ac576109ab61063c565b5b60006109ba84828501610981565b91505092915050565b7f4e487b7100000000000000000000000000000000000000000000000000000000600052601260045260246000fd5b7f4e487b7100000000000000000000000000000000000000000000000000000000600052601160045260246000fd5b6000610a2c826108b9565b9150610a37836108b9565b925082610a4757610a466109c3565b5b828204905092915050565b6000610a5d826108b9565b9150610a68836108b9565b9250828202610a76816108b9565b91508282048414831517610a8d57610a8c6109f2565b5b5092915050565b7f496e73756666696369656e74207061796d656e74000000000000000000000000600082015250565b6000610aca6014836108ed565b9150610ad582610a94565b602082019050919050565b60006020820190508181036000830152610af981610abd565b9050919050565b7f4e487b7100000000000000000000000000000000000000000000000000000000600052603260045260246000fd5b6000610b3a826108b9565b91507fffffffffffffffffffffffffffffffffffffffffffffffffffffffffffffffff8203610b6c57610b6b6109f2565b5b60018201905091905056fea26469706673582212200c9d949881155df063761fbbfbabf24518d20ef882e8e38d7e34b78792848fef64736f6c63430008130033",
  "linkReferences": {},
  "deployedLinkReferences": {}
}