{
  "_format": "hh-sol-artifact-1",
  "contractName": "SelfKisserMock",
  "sourceName": "contracts/SelfKisserMock.sol",
  "abi": [
    {
      "inputs": [
        {
          "internalType": "address",
          "name": "oracle",
          "type": "address"
        }
      ],
      "name": "selfKiss",
      "outputs": [],
      "stateMutability": "nonpayable",
      "type": "function"
    }
  ],
  "bytecode": "0x608060405234801561001057600080fd5b50610102806100206000396000f3fe6080604052348015600f57600080fd5b506004361060285760003560e01c8063c529a67914602d575b600080fd5b60436004803603810190603f919060a4565b6045565b005b50565b600080fd5b600073ffffffffffffffffffffffffffffffffffffffff82169050919050565b6000607682604d565b9050919050565b608481606d565b8114608e57600080fd5b50565b600081359050609e81607d565b92915050565b60006020828403121560b75760b66048565b5b600060c3848285016091565b9150509291505056fea2646970667358221220eadec61f0967fc28dd083e2fa3ed233e099f41359831096ef00578eab4dbc05164736f6c63430008130033",
  "linkReferences": {},
  "deployedLinkReferences": {}
}