{
  "_format": "hh-sol-artifact-1",
  "contractName": "IChronicleMock",
  "sourceName": "contracts/IChronicleMock.sol",
  "abi": [
    {
      "inputs": [],
      "name": "read",
      "outputs": [
        {
          "internalType": "uint256",
          "name": "value",
          "type": "uint256"
        }
      ],
      "stateMutability": "pure",
      "type": "function"
    }
  ],
  "bytecode": "0x608060405234801561001057600080fd5b5060be8061001f6000396000f3fe6080604052348015600f57600080fd5b506004361060285760003560e01c806357de26a414602d575b600080fd5b60336047565b604051603e9190606f565b60405180910390f35b6000686194049f30f7200000905090565b6000819050919050565b6069816058565b82525050565b6000602082019050608260008301846062565b9291505056fea26469706673582212204c0b9d181cd9842e26130547675a75ec8dd830279372c199c6ce52a629b927d664736f6c63430008130033",
  "linkReferences": {},
  "deployedLinkReferences": {}
}